{
  "transactions": [
    {
      "hash": "0x683bac5792bbd7ba3896f1e1c8d07103cd212fd729910a7c43f0bc3a7e221333",
      "transactionType": "CREATE",
      "contractName": "CodeToken",
      "contractAddress": "0x1a93f45aded08dd7a7f0fe89decb13419394e7cd",
      "function": null,
      "arguments": null,
      "transaction": {
        "from": "0xe38467773b31ea89d366e122e950148bbcbdc21a",
        "gas": "0x1689a6",
        "value": "0x0",
        "input": "0x608060405234801561001057600080fd5b50336040518060400160405280600981526020017f436f6465546f6b656e00000000000000000000000000000000000000000000008152506040518060400160405280600281526020017f4354000000000000000000000000000000000000000000000000000000000000815250816003908161008d9190610731565b50806004908161009d9190610731565b505050600073ffffffffffffffffffffffffffffffffffffffff168173ffffffffffffffffffffffffffffffffffffffff16036101125760006040517f1e4fbdf70000000000000000000000000000000000000000000000000000000081526004016101099190610844565b60405180910390fd5b6101218161016560201b60201c565b50600061013261022b60201b60201c565b600a61013e91906109ce565b633b9aca0061014d9190610a19565b905061015f338261023460201b60201c565b50610af0565b6000600560009054906101000a900473ffffffffffffffffffffffffffffffffffffffff16905081600560006101000a81548173ffffffffffffffffffffffffffffffffffffffff021916908373ffffffffffffffffffffffffffffffffffffffff1602179055508173ffffffffffffffffffffffffffffffffffffffff168173ffffffffffffffffffffffffffffffffffffffff167f8be0079c531659141344cd1fd0a4f28419497f9722a3daafe3b4186f6b6457e060405160405180910390a35050565b60006012905090565b600073ffffffffffffffffffffffffffffffffffffffff168273ffffffffffffffffffffffffffffffffffffffff16036102a65760006040517fec442f0500000000000000000000000000000000000000000000000000000000815260040161029d9190610844565b60405180910390fd5b6102b8600083836102bc60201b60201c565b5050565b600073ffffffffffffffffffffffffffffffffffffffff168373ffffffffffffffffffffffffffffffffffffffff160361030e5780600260008282546103029190610a5b565b925050819055506103e1565b60008060008573ffffffffffffffffffffffffffffffffffffffff1673ffffffffffffffffffffffffffffffffffffffff1681526020019081526020016000205490508181101561039a578381836040517fe450d38c00000000000000000000000000000000000000000000000000000000815260040161039193929190610a9e565b60405180910390fd5b8181036000808673ffffffffffffffffffffffffffffffffffffffff1673ffffffffffffffffffffffffffffffffffffffff16815260200190815260200160002081905550505b600073ffffffffffffffffffffffffffffffffffffffff168273ffffffffffffffffffffffffffffffffffffffff160361042a5780600260008282540392505081905550610477565b806000808473ffffffffffffffffffffffffffffffffffffffff1673ffffffffffffffffffffffffffffffffffffffff168152602001908152602001600020600082825401925050819055505b8173ffffffffffffffffffffffffffffffffffffffff168373ffffffffffffffffffffffffffffffffffffffff167fddf252ad1be2c89b69c2b068fc378daa952ba7f163c4a11628f55a4df523b3ef836040516104d49190610ad5565b60405180910390a3505050565b600081519050919050565b7f4e487b7100000000000000000000000000000000000000000000000000000000600052604160045260246000fd5b7f4e487b7100000000000000000000000000000000000000000000000000000000600052602260045260246000fd5b6000600282049050600182168061056257607f821691505b6020821081036105755761057461051b565b5b50919050565b60008190508160005260206000209050919050565b60006020601f8301049050919050565b600082821b905092915050565b6000600883026105dd7fffffffffffffffffffffffffffffffffffffffffffffffffffffffffffffffff826105a0565b6105e786836105a0565b95508019841693508086168417925050509392505050565b6000819050919050565b6000819050919050565b600061062e610629610624846105ff565b610609565b6105ff565b9050919050565b6000819050919050565b61064883610613565b61065c61065482610635565b8484546105ad565b825550505050565b600090565b610671610664565b61067c81848461063f565b505050565b5b818110156106a057610695600082610669565b600181019050610682565b5050565b601f8211156106e5576106b68161057b565b6106bf84610590565b810160208510156106ce578190505b6106e26106da85610590565b830182610681565b50505b505050565b600082821c905092915050565b6000610708600019846008026106ea565b1980831691505092915050565b600061072183836106f7565b9150826002028217905092915050565b61073a826104e1565b67ffffffffffffffff811115610753576107526104ec565b5b61075d825461054a565b6107688282856106a4565b600060209050601f83116001811461079b5760008415610789578287015190505b6107938582610715565b8655506107fb565b601f1984166107a98661057b565b60005b828110156107d1578489015182556001820191506020850194506020810190506107ac565b868310156107ee57848901516107ea601f8916826106f7565b8355505b6001600288020188555050505b505050505050565b600073ffffffffffffffffffffffffffffffffffffffff82169050919050565b600061082e82610803565b9050919050565b61083e81610823565b82525050565b60006020820190506108596000830184610835565b92915050565b7f4e487b7100000000000000000000000000000000000000000000000000000000600052601160045260246000fd5b60008160011c9050919050565b6000808291508390505b60018511156108e5578086048111156108c1576108c061085f565b5b60018516156108d05780820291505b80810290506108de8561088e565b94506108a5565b94509492505050565b6000826108fe57600190506109ba565b8161090c57600090506109ba565b8160018114610922576002811461092c5761095b565b60019150506109ba565b60ff84111561093e5761093d61085f565b5b8360020a9150848211156109555761095461085f565b5b506109ba565b5060208310610133831016604e8410600b84101617156109905782820a90508381111561098b5761098a61085f565b5b6109ba565b61099d848484600161089b565b925090508184048111156109b4576109b361085f565b5b81810290505b9392505050565b600060ff82169050919050565b60006109d9826105ff565b91506109e4836109c1565b9250610a117fffffffffffffffffffffffffffffffffffffffffffffffffffffffffffffffff84846108ee565b905092915050565b6000610a24826105ff565b9150610a2f836105ff565b9250828202610a3d816105ff565b91508282048414831517610a5457610a5361085f565b5b5092915050565b6000610a66826105ff565b9150610a71836105ff565b9250828201905080821115610a8957610a8861085f565b5b92915050565b610a98816105ff565b82525050565b6000606082019050610ab36000830186610835565b610ac06020830185610a8f565b610acd6040830184610a8f565b949350505050565b6000602082019050610aea6000830184610a8f565b92915050565b6110cb80610aff6000396000f3fe608060405234801561001057600080fd5b50600436106100b45760003560e01c8063715018a611610071578063715018a6146101a35780638da5cb5b146101ad57806395d89b41146101cb578063a9059cbb146101e9578063dd62ed3e14610219578063f2fde38b14610249576100b4565b806306fdde03146100b9578063095ea7b3146100d757806318160ddd1461010757806323b872dd14610125578063313ce5671461015557806370a0823114610173575b600080fd5b6100c1610265565b6040516100ce9190610d1f565b60405180910390f35b6100f160048036038101906100ec9190610dda565b6102f7565b6040516100fe9190610e35565b60405180910390f35b61010f61031a565b60405161011c9190610e5f565b60405180910390f35b61013f600480360381019061013a9190610e7a565b610324565b60405161014c9190610e35565b60405180910390f35b61015d610353565b60405161016a9190610ee9565b60405180910390f35b61018d60048036038101906101889190610f04565b61035c565b60405161019a9190610e5f565b60405180910390f35b6101ab6103a4565b005b6101b56103b8565b6040516101c29190610f40565b60405180910390f35b6101d36103e2565b6040516101e09190610d1f565b60405180910390f35b61020360048036038101906101fe9190610dda565b610474565b6040516102109190610e35565b60405180910390f35b610233600480360381019061022e9190610f5b565b610497565b6040516102409190610e5f565b60405180910390f35b610263600480360381019061025e9190610f04565b61051e565b005b60606003805461027490610fca565b80601f01602080910402602001604051908101604052809291908181526020018280546102a090610fca565b80156102ed5780601f106102c2576101008083540402835291602001916102ed565b820191906000526020600020905b8154815290600101906020018083116102d057829003601f168201915b5050505050905090565b6000806103026105a4565b905061030f8185856105ac565b600191505092915050565b6000600254905090565b60008061032f6105a4565b905061033c8582856105be565b610347858585610652565b60019150509392505050565b60006012905090565b60008060008373ffffffffffffffffffffffffffffffffffffffff1673ffffffffffffffffffffffffffffffffffffffff168152602001908152602001600020549050919050565b6103ac610746565b6103b660006107cd565b565b6000600560009054906101000a900473ffffffffffffffffffffffffffffffffffffffff16905090565b6060600480546103f190610fca565b80601f016020809104026020016040519081016040528092919081815260200182805461041d90610fca565b801561046a5780601f1061043f5761010080835404028352916020019161046a565b820191906000526020600020905b81548152906001019060200180831161044d57829003601f168201915b5050505050905090565b60008061047f6105a4565b905061048c818585610652565b600191505092915050565b6000600160008473ffffffffffffffffffffffffffffffffffffffff1673ffffffffffffffffffffffffffffffffffffffff16815260200190815260200160002060008373ffffffffffffffffffffffffffffffffffffffff1673ffffffffffffffffffffffffffffffffffffffff16815260200190815260200160002054905092915050565b610526610746565b600073ffffffffffffffffffffffffffffffffffffffff168173ffffffffffffffffffffffffffffffffffffffff16036105985760006040517f1e4fbdf700000000000000000000000000000000000000000000000000000000815260040161058f9190610f40565b60405180910390fd5b6105a1816107cd565b50565b600033905090565b6105b98383836001610893565b505050565b60006105ca8484610497565b90507fffffffffffffffffffffffffffffffffffffffffffffffffffffffffffffffff811461064c578181101561063c578281836040517ffb8f41b200000000000000000000000000000000000000000000000000000000815260040161063393929190610ffb565b60405180910390fd5b61064b84848484036000610893565b5b50505050565b600073ffffffffffffffffffffffffffffffffffffffff168373ffffffffffffffffffffffffffffffffffffffff16036106c45760006040517f96c6fd1e0000000000000000000000000000000000000000000000000000000081526004016106bb9190610f40565b60405180910390fd5b600073ffffffffffffffffffffffffffffffffffffffff168273ffffffffffffffffffffffffffffffffffffffff16036107365760006040517fec442f0500000000000000000000000000000000000000000000000000000000815260040161072d9190610f40565b60405180910390fd5b610741838383610a6a565b505050565b61074e6105a4565b73ffffffffffffffffffffffffffffffffffffffff1661076c6103b8565b73ffffffffffffffffffffffffffffffffffffffff16146107cb5761078f6105a4565b6040517f118cdaa70000000000000000000000000000000000000000000000000000000081526004016107c29190610f40565b60405180910390fd5b565b6000600560009054906101000a900473ffffffffffffffffffffffffffffffffffffffff16905081600560006101000a81548173ffffffffffffffffffffffffffffffffffffffff021916908373ffffffffffffffffffffffffffffffffffffffff1602179055508173ffffffffffffffffffffffffffffffffffffffff168173ffffffffffffffffffffffffffffffffffffffff167f8be0079c531659141344cd1fd0a4f28419497f9722a3daafe3b4186f6b6457e060405160405180910390a35050565b600073ffffffffffffffffffffffffffffffffffffffff168473ffffffffffffffffffffffffffffffffffffffff16036109055760006040517fe602df050000000000000000000000000000000000000000000000000000000081526004016108fc9190610f40565b60405180910390fd5b600073ffffffffffffffffffffffffffffffffffffffff168373ffffffffffffffffffffffffffffffffffffffff16036109775760006040517f94280d6200000000000000000000000000000000000000000000000000000000815260040161096e9190610f40565b60405180910390fd5b81600160008673ffffffffffffffffffffffffffffffffffffffff1673ffffffffffffffffffffffffffffffffffffffff16815260200190815260200160002060008573ffffffffffffffffffffffffffffffffffffffff1673ffffffffffffffffffffffffffffffffffffffff168152602001908152602001600020819055508015610a64578273ffffffffffffffffffffffffffffffffffffffff168473ffffffffffffffffffffffffffffffffffffffff167f8c5be1e5ebec7d5bd14f71427d1e84f3dd0314c0f7b2291e5b200ac8c7c3b92584604051610a5b9190610e5f565b60405180910390a35b50505050565b600073ffffffffffffffffffffffffffffffffffffffff168373ffffffffffffffffffffffffffffffffffffffff1603610abc578060026000828254610ab09190611061565b92505081905550610b8f565b60008060008573ffffffffffffffffffffffffffffffffffffffff1673ffffffffffffffffffffffffffffffffffffffff16815260200190815260200160002054905081811015610b48578381836040517fe450d38c000000000000000000000000000000000000000000000000000000008152600401610b3f93929190610ffb565b60405180910390fd5b8181036000808673ffffffffffffffffffffffffffffffffffffffff1673ffffffffffffffffffffffffffffffffffffffff16815260200190815260200160002081905550505b600073ffffffffffffffffffffffffffffffffffffffff168273ffffffffffffffffffffffffffffffffffffffff1603610bd85780600260008282540392505081905550610c25565b806000808473ffffffffffffffffffffffffffffffffffffffff1673ffffffffffffffffffffffffffffffffffffffff168152602001908152602001600020600082825401925050819055505b8173ffffffffffffffffffffffffffffffffffffffff168373ffffffffffffffffffffffffffffffffffffffff167fddf252ad1be2c89b69c2b068fc378daa952ba7f163c4a11628f55a4df523b3ef83604051610c829190610e5f565b60405180910390a3505050565b600081519050919050565b600082825260208201905092915050565b60005b83811015610cc9578082015181840152602081019050610cae565b60008484015250505050565b6000601f19601f8301169050919050565b6000610cf182610c8f565b610cfb8185610c9a565b9350610d0b818560208601610cab565b610d1481610cd5565b840191505092915050565b60006020820190508181036000830152610d398184610ce6565b905092915050565b600080fd5b600073ffffffffffffffffffffffffffffffffffffffff82169050919050565b6000610d7182610d46565b9050919050565b610d8181610d66565b8114610d8c57600080fd5b50565b600081359050610d9e81610d78565b92915050565b6000819050919050565b610db781610da4565b8114610dc257600080fd5b50565b600081359050610dd481610dae565b92915050565b60008060408385031215610df157610df0610d41565b5b6000610dff85828601610d8f565b9250506020610e1085828601610dc5565b9150509250929050565b60008115159050919050565b610e2f81610e1a565b82525050565b6000602082019050610e4a6000830184610e26565b92915050565b610e5981610da4565b82525050565b6000602082019050610e746000830184610e50565b92915050565b600080600060608486031215610e9357610e92610d41565b5b6000610ea186828701610d8f565b9350506020610eb286828701610d8f565b9250506040610ec386828701610dc5565b9150509250925092565b600060ff82169050919050565b610ee381610ecd565b82525050565b6000602082019050610efe6000830184610eda565b92915050565b600060208284031215610f1a57610f19610d41565b5b6000610f2884828501610d8f565b91505092915050565b610f3a81610d66565b82525050565b6000602082019050610f556000830184610f31565b92915050565b60008060408385031215610f7257610f71610d41565b5b6000610f8085828601610d8f565b9250506020610f9185828601610d8f565b9150509250929050565b7f4e487b7100000000000000000000000000000000000000000000000000000000600052602260045260246000fd5b60006002820490506001821680610fe257607f821691505b602082108103610ff557610ff4610f9b565b5b50919050565b60006060820190506110106000830186610f31565b61101d6020830185610e50565b61102a6040830184610e50565b949350505050565b7f4e487b7100000000000000000000000000000000000000000000000000000000600052601160045260246000fd5b600061106c82610da4565b915061107783610da4565b925082820190508082111561108f5761108e611032565b5b9291505056fea26469706673582212203fda09003b4a75b649a19e6f1b5586987fcb27fbcac665caab7f31a4e0b1ac1164736f6c63430008190033",
        "nonce": "0x9",
        "chainId": "0x14a34"
      },
      "additionalContracts": [],
      "isFixedGasLimit": false
    },
    {
      "hash": "0x66492675739577f8adf3d891b1c31d37a5de154d48f15dd949f53bf53a5ce86e",
      "transactionType": "CREATE",
      "contractName": "CodeTokenFaucet",
      "contractAddress": "0xfe52516901e659fe15ef05d5e82c49b3adbb32b8",
      "function": null,
      "arguments": [
        "0x1a93f45AdED08DD7A7F0Fe89decb13419394e7cd"
      ],
      "transaction": {
        "from": "0xe38467773b31ea89d366e122e950148bbcbdc21a",
        "gas": "0x7af08",
        "value": "0x0",
        "input": "0x60a060405234801561001057600080fd5b50604051610724380380610724833981810160405281019061003291906100cf565b8073ffffffffffffffffffffffffffffffffffffffff1660808173ffffffffffffffffffffffffffffffffffffffff1681525050506100fc565b600080fd5b600073ffffffffffffffffffffffffffffffffffffffff82169050919050565b600061009c82610071565b9050919050565b6100ac81610091565b81146100b757600080fd5b50565b6000815190506100c9816100a3565b92915050565b6000602082840312156100e5576100e461006c565b5b60006100f3848285016100ba565b91505092915050565b608051610600610124600039600081816077015281816101cb015261036001526106006000f3fe608060405234801561001057600080fd5b50600436106100365760003560e01c80631e83409a1461003b57806343cca26414610057575b600080fd5b610055600480360381019061005091906103e7565b610075565b005b61005f61035c565b60405161006c9190610423565b60405180910390f35b7f000000000000000000000000000000000000000000000000000000000000000073ffffffffffffffffffffffffffffffffffffffff166370a08231306040518263ffffffff1660e01b81526004016100ce9190610423565b602060405180830381865afa1580156100eb573d6000803e3d6000fd5b505050506040513d601f19601f8201168201806040525081019061010f9190610474565b683635c9adc5dea000001115610151576040517f03536a9900000000000000000000000000000000000000000000000000000000815260040160405180910390fd5b426000808373ffffffffffffffffffffffffffffffffffffffff1673ffffffffffffffffffffffffffffffffffffffff1681526020019081526020016000205411156101c9576040517fdfe7fba400000000000000000000000000000000000000000000000000000000815260040160405180910390fd5b7f000000000000000000000000000000000000000000000000000000000000000073ffffffffffffffffffffffffffffffffffffffff1663a9059cbb82683635c9adc5dea000006040518363ffffffff1660e01b815260040161022d9291906104b0565b6020604051808303816000875af115801561024c573d6000803e3d6000fd5b505050506040513d601f19601f820116820180604052508101906102709190610511565b506201518042610280919061056d565b6000808373ffffffffffffffffffffffffffffffffffffffff1673ffffffffffffffffffffffffffffffffffffffff168152602001908152602001600020819055508073ffffffffffffffffffffffffffffffffffffffff167f9923b4306c6c030f2bdfbf156517d5983b87e15b96176da122cd4f2effa4ba7b683635c9adc5dea000006000808573ffffffffffffffffffffffffffffffffffffffff1673ffffffffffffffffffffffffffffffffffffffff168152602001908152602001600020546040516103519291906105a1565b60405180910390a250565b60007f0000000000000000000000000000000000000000000000000000000000000000905090565b600080fd5b600073ffffffffffffffffffffffffffffffffffffffff82169050919050565b60006103b482610389565b9050919050565b6103c4816103a9565b81146103cf57600080fd5b50565b6000813590506103e1816103bb565b92915050565b6000602082840312156103fd576103fc610384565b5b600061040b848285016103d2565b91505092915050565b61041d816103a9565b82525050565b60006020820190506104386000830184610414565b92915050565b6000819050919050565b6104518161043e565b811461045c57600080fd5b50565b60008151905061046e81610448565b92915050565b60006020828403121561048a57610489610384565b5b60006104988482850161045f565b91505092915050565b6104aa8161043e565b82525050565b60006040820190506104c56000830185610414565b6104d260208301846104a1565b9392505050565b60008115159050919050565b6104ee816104d9565b81146104f957600080fd5b50565b60008151905061050b816104e5565b92915050565b60006020828403121561052757610526610384565b5b6000610535848285016104fc565b91505092915050565b7f4e487b7100000000000000000000000000000000000000000000000000000000600052601160045260246000fd5b60006105788261043e565b91506105838361043e565b925082820190508082111561059b5761059a61053e565b5b92915050565b60006040820190506105b660008301856104a1565b6105c360208301846104a1565b939250505056fea26469706673582212207ade9510df9bc17f7c136a61798d83ea6586fa5bcc9dde73a4c7bb9d5ee0917e64736f6c634300081900330000000000000000000000001a93f45aded08dd7a7f0fe89decb13419394e7cd",
        "nonce": "0xa",
        "chainId": "0x14a34"
      },
      "additionalContracts": [],
      "isFixedGasLimit": false
    },
    {
      "hash": "0x79429fbdbaba6a425ec4e9c66915a23f8eb48873eea4bbff99d6f9d6ae5eb7cc",
      "transactionType": "CALL",
      "contractName": "CodeToken",
      "contractAddress": "0x1a93f45aded08dd7a7f0fe89decb13419394e7cd",
      "function": "transferOwnership(address)",
      "arguments": [
        "0xFE52516901e659fE15EF05D5E82C49b3ADbB32B8"
      ],
      "transaction": {
        "from": "0xe38467773b31ea89d366e122e950148bbcbdc21a",
        "to": "0x1a93f45aded08dd7a7f0fe89decb13419394e7cd",
        "gas": "0x9ced",
        "value": "0x0",
        "input": "0xf2fde38b000000000000000000000000fe52516901e659fe15ef05d5e82c49b3adbb32b8",
        "nonce": "0xb",
        "chainId": "0x14a34"
      },
      "additionalContracts": [],
      "isFixedGasLimit": false
    },
    {
      "hash": "0xfb4dddc69c7f5e35b44ac5058fd471812386273bcb3be300c912aebc4ee08a52",
      "transactionType": "CALL",
      "contractName": "CodeToken",
      "contractAddress": "0x1a93f45aded08dd7a7f0fe89decb13419394e7cd",
      "function": "transfer(address,uint256)",
      "arguments": [
        "0xFE52516901e659fE15EF05D5E82C49b3ADbB32B8",
        "1000000000000000000000000000"
      ],
      "transaction": {
        "from": "0xe38467773b31ea89d366e122e950148bbcbdc21a",
        "to": "0x1a93f45aded08dd7a7f0fe89decb13419394e7cd",
        "gas": "0xfffe",
        "value": "0x0",
        "input": "0xa9059cbb000000000000000000000000fe52516901e659fe15ef05d5e82c49b3adbb32b80000000000000000000000000000000000000000033b2e3c9fd0803ce8000000",
        "nonce": "0xc",
        "chainId": "0x14a34"
      },
      "additionalContracts": [],
      "isFixedGasLimit": false
    }
  ],
  "receipts": [
    {
      "status": "0x1",
      "cumulativeGasUsed": "0x167e8b",
      "logs": [
        {
          "address": "0x1a93f45aded08dd7a7f0fe89decb13419394e7cd",
          "topics": [
            "0x8be0079c531659141344cd1fd0a4f28419497f9722a3daafe3b4186f6b6457e0",
            "0x0000000000000000000000000000000000000000000000000000000000000000",
            "0x000000000000000000000000e38467773b31ea89d366e122e950148bbcbdc21a"
          ],
          "data": "0x",
          "blockHash": "0x0c84ad1af6493fae976667e9c0aec805b4e06d6c35270dd7dd66ad47a5113352",
          "blockNumber": "0x10ded82",
          "transactionHash": "0x683bac5792bbd7ba3896f1e1c8d07103cd212fd729910a7c43f0bc3a7e221333",
          "transactionIndex": "0x6",
          "logIndex": "0x3",
          "removed": false
        },
        {
          "address": "0x1a93f45aded08dd7a7f0fe89decb13419394e7cd",
          "topics": [
            "0xddf252ad1be2c89b69c2b068fc378daa952ba7f163c4a11628f55a4df523b3ef",
            "0x0000000000000000000000000000000000000000000000000000000000000000",
            "0x000000000000000000000000e38467773b31ea89d366e122e950148bbcbdc21a"
          ],
          "data": "0x0000000000000000000000000000000000000000033b2e3c9fd0803ce8000000",
          "blockHash": "0x0c84ad1af6493fae976667e9c0aec805b4e06d6c35270dd7dd66ad47a5113352",
          "blockNumber": "0x10ded82",
          "transactionHash": "0x683bac5792bbd7ba3896f1e1c8d07103cd212fd729910a7c43f0bc3a7e221333",
          "transactionIndex": "0x6",
          "logIndex": "0x4",
          "removed": false
        }
      ],
      "logsBloom": "0x00000000000000000000000000000000000000000000000000800000000000000000000000000000000000000000000000000000000000000000000000000000000000000000000000000008000000000001000000000000000000000000000000000000020000000000000000000800000000000000000000000010000000400000000000008000000000000000000000000000000000000000000000000000000000000000000000000000000000000000000000000000040000000000000000000002000000000000000000000000000000000000200001000000000020000000000000000000000000000000008000000000000000000000000020000000",
      "type": "0x2",
      "transactionHash": "0x683bac5792bbd7ba3896f1e1c8d07103cd212fd729910a7c43f0bc3a7e221333",
      "transactionIndex": "0x6",
      "blockHash": "0x0c84ad1af6493fae976667e9c0aec805b4e06d6c35270dd7dd66ad47a5113352",
      "blockNumber": "0x10ded82",
      "gasUsed": "0x1157ef",
      "effectiveGasPrice": "0x86577",
      "from": "0xe38467773b31ea89d366e122e950148bbcbdc21a",
      "to": null,
      "contractAddress": "0x1a93f45aded08dd7a7f0fe89decb13419394e7cd",
      "l1BaseFeeScalar": "0x44d",
      "l1BlobBaseFee": "0x15bcf51524b",
      "l1BlobBaseFeeScalar": "0xa118b",
      "l1Fee": "0xa9352deb7abea",
      "l1GasPrice": "0x3dc449661",
      "l1GasUsed": "0xbcb0"
    },
    {
      "status": "0x1",
      "cumulativeGasUsed": "0x1c681b",
      "logs": [],
      "logsBloom": "0x00000000000000000000000000000000000000000000000000000000000000000000000000000000000000000000000000000000000000000000000000000000000000000000000000000000000000000000000000000000000000000000000000000000000000000000000000000000000000000000000000000000000000000000000000000000000000000000000000000000000000000000000000000000000000000000000000000000000000000000000000000000000000000000000000000000000000000000000000000000000000000000000000000000000000000000000000000000000000000000000000000000000000000000000000000000",
      "type": "0x2",
      "transactionHash": "0x66492675739577f8adf3d891b1c31d37a5de154d48f15dd949f53bf53a5ce86e",
      "transactionIndex": "0x7",
      "blockHash": "0x0c84ad1af6493fae976667e9c0aec805b4e06d6c35270dd7dd66ad47a5113352",
      "blockNumber": "0x10ded82",
      "gasUsed": "0x5e990",
      "effectiveGasPrice": "0x86577",
      "from": "0xe38467773b31ea89d366e122e950148bbcbdc21a",
      "to": null,
      "contractAddress": "0xfe52516901e659fe15ef05d5e82c49b3adbb32b8",
      "l1BaseFeeScalar": "0x44d",
      "l1BlobBaseFee": "0x15bcf51524b",
      "l1BlobBaseFeeScalar": "0xa118b",
      "l1Fee": "0x33ff9338efa50",
      "l1GasPrice": "0x3dc449661",
      "l1GasUsed": "0x39fc"
    },
    {
      "status": "0x1",
      "cumulativeGasUsed": "0x1cd9b9",
      "logs": [
        {
          "address": "0x1a93f45aded08dd7a7f0fe89decb13419394e7cd",
          "topics": [
            "0x8be0079c531659141344cd1fd0a4f28419497f9722a3daafe3b4186f6b6457e0",
            "0x000000000000000000000000e38467773b31ea89d366e122e950148bbcbdc21a",
            "0x000000000000000000000000fe52516901e659fe15ef05d5e82c49b3adbb32b8"
          ],
          "data": "0x",
          "blockHash": "0x0c84ad1af6493fae976667e9c0aec805b4e06d6c35270dd7dd66ad47a5113352",
          "blockNumber": "0x10ded82",
          "transactionHash": "0x79429fbdbaba6a425ec4e9c66915a23f8eb48873eea4bbff99d6f9d6ae5eb7cc",
          "transactionIndex": "0x8",
          "logIndex": "0x5",
          "removed": false
        }
      ],
      "logsBloom": "0x00000000000000000000000000000000000000000000000000800000000000000000000000000000000000000000000000000000000000000000000000000000000000000000000000000000000000000001000000000000000000000000000000000000000000000000000002000000000000000000000000000000000000400000000000008000000000000000000000000000000000000000000000000000000000000000000000000000000000000000000010000000040000000000000000000000000000000000000000000000000000000000200001000000000000000000000000080000000000000000008000000000000000000000000020000000",
      "type": "0x2",
      "transactionHash": "0x79429fbdbaba6a425ec4e9c66915a23f8eb48873eea4bbff99d6f9d6ae5eb7cc",
      "transactionIndex": "0x8",
      "blockHash": "0x0c84ad1af6493fae976667e9c0aec805b4e06d6c35270dd7dd66ad47a5113352",
      "blockNumber": "0x10ded82",
      "gasUsed": "0x719e",
      "effectiveGasPrice": "0x86577",
      "from": "0xe38467773b31ea89d366e122e950148bbcbdc21a",
      "to": "0x1a93f45aded08dd7a7f0fe89decb13419394e7cd",
      "contractAddress": null,
      "l1BaseFeeScalar": "0x44d",
      "l1BlobBaseFee": "0x15bcf51524b",
      "l1BlobBaseFeeScalar": "0xa118b",
      "l1Fee": "0x59ad11366e67",
      "l1GasPrice": "0x3dc449661",
      "l1GasUsed": "0x640"
    },
    {
      "status": "0x1",
      "cumulativeGasUsed": "0xe0f61",
      "logs": [
        {
          "address": "0x1a93f45aded08dd7a7f0fe89decb13419394e7cd",
          "topics": [
            "0xddf252ad1be2c89b69c2b068fc378daa952ba7f163c4a11628f55a4df523b3ef",
            "0x000000000000000000000000e38467773b31ea89d366e122e950148bbcbdc21a",
            "0x000000000000000000000000fe52516901e659fe15ef05d5e82c49b3adbb32b8"
          ],
          "data": "0x0000000000000000000000000000000000000000033b2e3c9fd0803ce8000000",
          "blockHash": "0xc90820f0015629ee6cb45482604df8b52cad280108df06d56f8a6295c4c86429",
          "blockNumber": "0x10ded83",
          "transactionHash": "0xfb4dddc69c7f5e35b44ac5058fd471812386273bcb3be300c912aebc4ee08a52",
          "transactionIndex": "0xe",
          "logIndex": "0x19",
          "removed": false
        }
      ],
      "logsBloom": "0x00000000000000000000000000000000000000000000000000000000000000000000000000000000000000000000000000000000000000000000000000000000000000000000000000000008000000000000000000000000000000000000000000000000000000000000000002000000000000000000000000000010000000000000000000008000000000000000000000000000000000000000000000000000000000000000000000000000000000000000000010000000040000000000000000000002000000000000000000000000000000000000200001000000000000000000000000080000000000000000008000000000000000000000000020000000",
      "type": "0x2",
      "transactionHash": "0xfb4dddc69c7f5e35b44ac5058fd471812386273bcb3be300c912aebc4ee08a52",
      "transactionIndex": "0xe",
      "blockHash": "0xc90820f0015629ee6cb45482604df8b52cad280108df06d56f8a6295c4c86429",
      "blockNumber": "0x10ded83",
      "gasUsed": "0xb956",
      "effectiveGasPrice": "0x86577",
      "from": "0xe38467773b31ea89d366e122e950148bbcbdc21a",
      "to": "0x1a93f45aded08dd7a7f0fe89decb13419394e7cd",
      "contractAddress": null,
      "l1BaseFeeScalar": "0x44d",
      "l1BlobBaseFee": "0x15bcf51524b",
      "l1BlobBaseFeeScalar": "0xa118b",
      "l1Fee": "0x59ad11366e67",
      "l1GasPrice": "0x3dc449661",
      "l1GasUsed": "0x640"
    }
  ],
  "libraries": [],
  "pending": [],
  "returns": {
    "0": {
      "internal_type": "contract CodeToken",
      "value": "0x1a93f45AdED08DD7A7F0Fe89decb13419394e7cd"
    },
    "1": {
      "internal_type": "contract CodeTokenFaucet",
      "value": "0xFE52516901e659fE15EF05D5E82C49b3ADbB32B8"
    }
  },
  "timestamp": 1731148268,
  "chain": 84532,
  "commit": "c7edc02"
}